{
  "_format": "hh-sol-artifact-1",
  "contractName": "CeloRaffle",
  "sourceName": "contracts/CeloRaffle.sol",
  "abi": [
    {
      "inputs": [],
      "stateMutability": "nonpayable",
      "type": "constructor"
    },
    {
      "inputs": [
        {
          "internalType": "address",
          "name": "owner",
          "type": "address"
        }
      ],
      "name": "OwnableInvalidOwner",
      "type": "error"
    },
    {
      "inputs": [
        {
          "internalType": "address",
          "name": "account",
          "type": "address"
        }
      ],
      "name": "OwnableUnauthorizedAccount",
      "type": "error"
    },
    {
      "inputs": [],
      "name": "ReentrancyGuardReentrantCall",
      "type": "error"
    },
    {
      "anonymous": false,
      "inputs": [
        {
          "indexed": true,
          "internalType": "bytes32",
          "name": "agentId",
          "type": "bytes32"
        }
      ],
      "name": "AgentActivated",
      "type": "event"
    },
    {
      "anonymous": false,
      "inputs": [
        {
          "indexed": true,
          "internalType": "bytes32",
          "name": "agentId",
          "type": "bytes32"
        },
        {
          "indexed": false,
          "internalType": "address",
          "name": "operator",
          "type": "address"
        },
        {
          "indexed": false,
          "internalType": "string",
          "name": "metadata",
          "type": "string"
        }
      ],
      "name": "AgentRegistered",
      "type": "event"
    },
    {
      "anonymous": false,
      "inputs": [
        {
          "indexed": true,
          "internalType": "uint256",
          "name": "raffleId",
          "type": "uint256"
        },
        {
          "indexed": false,
          "internalType": "uint256",
          "name": "randomWord",
          "type": "uint256"
        }
      ],
      "name": "DrawCompleted",
      "type": "event"
    },
    {
      "anonymous": false,
      "inputs": [
        {
          "indexed": true,
          "internalType": "address",
          "name": "previousOwner",
          "type": "address"
        },
        {
          "indexed": true,
          "internalType": "address",
          "name": "newOwner",
          "type": "address"
        }
      ],
      "name": "OwnershipTransferred",
      "type": "event"
    },
    {
      "anonymous": false,
      "inputs": [
        {
          "indexed": true,
          "internalType": "uint256",
          "name": "raffleId",
          "type": "uint256"
        }
      ],
      "name": "RaffleClosed",
      "type": "event"
    },
    {
      "anonymous": false,
      "inputs": [
        {
          "indexed": true,
          "internalType": "uint256",
          "name": "raffleId",
          "type": "uint256"
        }
      ],
      "name": "RaffleStarted",
      "type": "event"
    },
    {
      "anonymous": false,
      "inputs": [
        {
          "indexed": false,
          "internalType": "uint256",
          "name": "newPrice",
          "type": "uint256"
        }
      ],
      "name": "TicketPriceUpdated",
      "type": "event"
    },
    {
      "anonymous": false,
      "inputs": [
        {
          "indexed": true,
          "internalType": "address",
          "name": "buyer",
          "type": "address"
        },
        {
          "indexed": false,
          "internalType": "uint256",
          "name": "amount",
          "type": "uint256"
        },
        {
          "indexed": false,
          "internalType": "uint256",
          "name": "raffleId",
          "type": "uint256"
        }
      ],
      "name": "TicketPurchased",
      "type": "event"
    },
    {
      "anonymous": false,
      "inputs": [
        {
          "indexed": true,
          "internalType": "address",
          "name": "winner",
          "type": "address"
        },
        {
          "indexed": false,
          "internalType": "uint256",
          "name": "prize",
          "type": "uint256"
        },
        {
          "indexed": false,
          "internalType": "uint256",
          "name": "raffleId",
          "type": "uint256"
        }
      ],
      "name": "WinnerSelected",
      "type": "event"
    },
    {
      "inputs": [
        {
          "internalType": "bytes32",
          "name": "_agentId",
          "type": "bytes32"
        }
      ],
      "name": "activateAgent",
      "outputs": [],
      "stateMutability": "nonpayable",
      "type": "function"
    },
    {
      "inputs": [],
      "name": "activeAgentId",
      "outputs": [
        {
          "internalType": "bytes32",
          "name": "",
          "type": "bytes32"
        }
      ],
      "stateMutability": "view",
      "type": "function"
    },
    {
      "inputs": [
        {
          "internalType": "bytes32",
          "name": "",
          "type": "bytes32"
        }
      ],
      "name": "agentRegistry",
      "outputs": [
        {
          "internalType": "bytes32",
          "name": "agentId",
          "type": "bytes32"
        },
        {
          "internalType": "string",
          "name": "metadata",
          "type": "string"
        },
        {
          "internalType": "address",
          "name": "operator",
          "type": "address"
        },
        {
          "internalType": "bool",
          "name": "active",
          "type": "bool"
        },
        {
          "internalType": "uint256",
          "name": "registeredAt",
          "type": "uint256"
        }
      ],
      "stateMutability": "view",
      "type": "function"
    },
    {
      "inputs": [
        {
          "internalType": "bytes32",
          "name": "_agentId",
          "type": "bytes32"
        }
      ],
      "name": "getAgent",
      "outputs": [
        {
          "components": [
            {
              "internalType": "bytes32",
              "name": "agentId",
              "type": "bytes32"
            },
            {
              "internalType": "string",
              "name": "metadata",
              "type": "string"
            },
            {
              "internalType": "address",
              "name": "operator",
              "type": "address"
            },
            {
              "internalType": "bool",
              "name": "active",
              "type": "bool"
            },
            {
              "internalType": "uint256",
              "name": "registeredAt",
              "type": "uint256"
            }
          ],
          "internalType": "struct CeloRaffle.AgentIdentity",
          "name": "",
          "type": "tuple"
        }
      ],
      "stateMutability": "view",
      "type": "function"
    },
    {
      "inputs": [],
      "name": "getParticipantCount",
      "outputs": [
        {
          "internalType": "uint256",
          "name": "",
          "type": "uint256"
        }
      ],
      "stateMutability": "view",
      "type": "function"
    },
    {
      "inputs": [],
      "name": "getParticipants",
      "outputs": [
        {
          "internalType": "address[]",
          "name": "",
          "type": "address[]"
        }
      ],
      "stateMutability": "view",
      "type": "function"
    },
    {
      "inputs": [],
      "name": "getPrizePool",
      "outputs": [
        {
          "internalType": "uint256",
          "name": "",
          "type": "uint256"
        }
      ],
      "stateMutability": "view",
      "type": "function"
    },
    {
      "inputs": [],
      "name": "getRaffleInfo",
      "outputs": [
        {
          "internalType": "uint256",
          "name": "_raffleId",
          "type": "uint256"
        },
        {
          "internalType": "enum CeloRaffle.RaffleState",
          "name": "_state",
          "type": "uint8"
        },
        {
          "internalType": "uint256",
          "name": "_participantCount",
          "type": "uint256"
        },
        {
          "internalType": "uint256",
          "name": "_prizePool",
          "type": "uint256"
        },
        {
          "internalType": "uint256",
          "name": "_ticketPrice",
          "type": "uint256"
        }
      ],
      "stateMutability": "view",
      "type": "function"
    },
    {
      "inputs": [
        {
          "internalType": "address",
          "name": "_user",
          "type": "address"
        }
      ],
      "name": "getUserTickets",
      "outputs": [
        {
          "internalType": "uint256",
          "name": "",
          "type": "uint256"
        }
      ],
      "stateMutability": "view",
      "type": "function"
    },
    {
      "inputs": [],
      "name": "owner",
      "outputs": [
        {
          "internalType": "address",
          "name": "",
          "type": "address"
        }
      ],
      "stateMutability": "view",
      "type": "function"
    },
    {
      "inputs": [
        {
          "internalType": "uint256",
          "name": "",
          "type": "uint256"
        }
      ],
      "name": "participants",
      "outputs": [
        {
          "internalType": "address",
          "name": "",
          "type": "address"
        }
      ],
      "stateMutability": "view",
      "type": "function"
    },
    {
      "inputs": [
        {
          "internalType": "uint256",
          "name": "_numTickets",
          "type": "uint256"
        }
      ],
      "name": "purchaseTickets",
      "outputs": [],
      "stateMutability": "payable",
      "type": "function"
    },
    {
      "inputs": [],
      "name": "raffleId",
      "outputs": [
        {
          "internalType": "uint256",
          "name": "",
          "type": "uint256"
        }
      ],
      "stateMutability": "view",
      "type": "function"
    },
    {
      "inputs": [
        {
          "internalType": "uint256",
          "name": "",
          "type": "uint256"
        }
      ],
      "name": "rafflePrizePool",
      "outputs": [
        {
          "internalType": "uint256",
          "name": "",
          "type": "uint256"
        }
      ],
      "stateMutability": "view",
      "type": "function"
    },
    {
      "inputs": [],
      "name": "raffleState",
      "outputs": [
        {
          "internalType": "enum CeloRaffle.RaffleState",
          "name": "",
          "type": "uint8"
        }
      ],
      "stateMutability": "view",
      "type": "function"
    },
    {
      "inputs": [
        {
          "internalType": "uint256",
          "name": "",
          "type": "uint256"
        }
      ],
      "name": "raffleWinner",
      "outputs": [
        {
          "internalType": "address",
          "name": "",
          "type": "address"
        }
      ],
      "stateMutability": "view",
      "type": "function"
    },
    {
      "inputs": [
        {
          "internalType": "bytes32",
          "name": "_agentId",
          "type": "bytes32"
        },
        {
          "internalType": "string",
          "name": "_metadata",
          "type": "string"
        }
      ],
      "name": "registerAgent",
      "outputs": [],
      "stateMutability": "nonpayable",
      "type": "function"
    },
    {
      "inputs": [],
      "name": "renounceOwnership",
      "outputs": [],
      "stateMutability": "nonpayable",
      "type": "function"
    },
    {
      "inputs": [],
      "name": "requestDraw",
      "outputs": [],
      "stateMutability": "nonpayable",
      "type": "function"
    },
    {
      "inputs": [
        {
          "internalType": "uint256",
          "name": "_price",
          "type": "uint256"
        }
      ],
      "name": "setTicketPrice",
      "outputs": [],
      "stateMutability": "nonpayable",
      "type": "function"
    },
    {
      "inputs": [],
      "name": "startNewRaffle",
      "outputs": [],
      "stateMutability": "nonpayable",
      "type": "function"
    },
    {
      "inputs": [
        {
          "internalType": "address",
          "name": "",
          "type": "address"
        }
      ],
      "name": "ticketCount",
      "outputs": [
        {
          "internalType": "uint256",
          "name": "",
          "type": "uint256"
        }
      ],
      "stateMutability": "view",
      "type": "function"
    },
    {
      "inputs": [],
      "name": "ticketPrice",
      "outputs": [
        {
          "internalType": "uint256",
          "name": "",
          "type": "uint256"
        }
      ],
      "stateMutability": "view",
      "type": "function"
    },
    {
      "inputs": [
        {
          "internalType": "address",
          "name": "newOwner",
          "type": "address"
        }
      ],
      "name": "transferOwnership",
      "outputs": [],
      "stateMutability": "nonpayable",
      "type": "function"
    },
    {
      "stateMutability": "payable",
      "type": "receive"
    }
  ],
  "bytecode": "0x6080604052662386f26fc1000060015534801561001b57600080fd5b50338061004257604051631e4fbdf760e01b81526000600482015260240160405180910390fd5b61004b816100af565b5060017f9b779b17422d0df92223018b32b4d1fa46e071723d6817e2486d003becc55f00556002805460ff19169055600160038190556040517fe23fdee573320f133dc10284dcb988d5c782f07ec7b6b01d7ffbc6d537b2a42190600090a26100ff565b600080546001600160a01b038381166001600160a01b0319831681178455604051919092169283917f8be0079c531659141344cd1fd0a4f28419497f9722a3daafe3b4186f6b6457e09190a35050565b6116388061010e6000396000f3fe60806040526004361061014f5760003560e01c80638da5cb5b116100b6578063ab9b67d71161006f578063ab9b67d7146103ea578063ad6057291461041b578063b015813b14610430578063b0c8433914610450578063b375603c14610466578063f2fde38b1461047c57600080fd5b80638da5cb5b146103425780639c79595114610360578063a127760014610380578063a57848b614610393578063a6c2af01146103a8578063a91f3e56146103d557600080fd5b80635aa68ac0116101085780635aa68ac01461026857806364c191751461028a57806370ca5bbe146102c0578063715018a6146102ed5780638166f6b214610302578063884bf67c1461032f57600080fd5b80630484a22f1461015b5780631209b1f6146101a457806315981650146101ba57806335c1d349146101dc578063476d23c91461021457806355c815951461024157600080fd5b3661015657005b600080fd5b34801561016757600080fd5b50610191610176366004611136565b6001600160a01b031660009081526005602052604090205490565b6040519081526020015b60405180910390f35b3480156101b057600080fd5b5061019160015481565b3480156101c657600080fd5b506101da6101d5366004611166565b61049c565b005b3480156101e857600080fd5b506101fc6101f7366004611166565b610530565b6040516001600160a01b03909116815260200161019b565b34801561022057600080fd5b5061019161022f366004611166565b60076020526000908152604090205481565b34801561024d57600080fd5b5060025461025b9060ff1681565b60405161019b91906111b7565b34801561027457600080fd5b5061027d61055a565b60405161019b91906111cb565b34801561029657600080fd5b506101fc6102a5366004611166565b6006602052600090815260409020546001600160a01b031681565b3480156102cc57600080fd5b506101916102db366004611136565b60056020526000908152604090205481565b3480156102f957600080fd5b506101da6105bc565b34801561030e57600080fd5b5060035460025460045460015460405161019b949360ff1692914791611218565b34801561033b57600080fd5b5047610191565b34801561034e57600080fd5b506000546001600160a01b03166101fc565b34801561036c57600080fd5b506101da61037b366004611248565b6105d0565b6101da61038e366004611166565b61074a565b34801561039f57600080fd5b506101da610942565b3480156103b457600080fd5b506103c86103c3366004611166565b610ab1565b60405161019b919061130a565b3480156103e157600080fd5b506101da610bcd565b3480156103f657600080fd5b5061040a610405366004611166565b610cf0565b60405161019b959493929190611364565b34801561042757600080fd5b50600454610191565b34801561043c57600080fd5b506101da61044b366004611166565b610db7565b34801561045c57600080fd5b5061019160095481565b34801561047257600080fd5b5061019160035481565b34801561048857600080fd5b506101da610497366004611136565b610e51565b6104a4610e8c565b66038d7ea4c680008110156104f55760405162461bcd60e51b81526020600482015260126024820152714d696e696d756d20302e3030312043454c4f60701b60448201526064015b60405180910390fd5b60018190556040518181527f7429795511c1ec5ebcc0e6839095ec18f13fce25cdc7c90da9d8a016584a1dbe9060200160405180910390a150565b6004818154811061054057600080fd5b6000918252602090912001546001600160a01b0316905081565b606060048054806020026020016040519081016040528092919081815260200182805480156105b257602002820191906000526020600020905b81546001600160a01b03168152600190910190602001808311610594575b5050505050905090565b6105c4610e8c565b6105ce6000610eb9565b565b600083815260086020526040902060020154600160a01b900460ff16156106395760405162461bcd60e51b815260206004820152601860248201527f4167656e7420616c72656164792072656769737465726564000000000000000060448201526064016104ec565b6040518060a0016040528084815260200183838080601f016020809104026020016040519081016040528093929190818152602001838380828437600092018290525093855250503360208085019190915260016040808601829052426060909601959095528884526008825293909220845181559184015191928301916106c2915082611442565b5060408281015160028301805460608601511515600160a01b026001600160a81b03199091166001600160a01b03909316929092179190911790556080909201516003909101555183907f186c9e760261cf9d36dfc9a09ca598dbff789d7d4201868118b92d46e56dac809061073d90339086908690611502565b60405180910390a2505050565b610752610f09565b60006002805460ff169081111561076b5761076b61117f565b146107aa5760405162461bcd60e51b815260206004820152600f60248201526e2930b3333632903737ba1037b832b760891b60448201526064016104ec565b6000811180156107bb575060328111155b6107fe5760405162461bcd60e51b8152602060048201526014602482015273125b9d985b1a59081d1a58dad95d0818dbdd5b9d60621b60448201526064016104ec565b8060015461080c9190611558565b341461084e5760405162461bcd60e51b815260206004820152601160248201527015dc9bdb99c810d15313c8185b5bdd5b9d607a1b60448201526064016104ec565b60005b818110156108ad57600480546001810182556000919091527f8a35acfbc15ff81a39ae7d344fd709f28e8600b4aa8c65c6b64bfe7fe36bd19b0180546001600160a01b03191633179055806108a58161156f565b915050610851565b5033600090815260056020526040812080548392906108cd908490611588565b909155505060035460405133917f2a91574e12ad96234e84923e146b0946ecfb871cd8d5534dc1fdcbe87a7c01b39161090e91858252602082015260400190565b60405180910390a261093f60017f9b779b17422d0df92223018b32b4d1fa46e071723d6817e2486d003becc55f0055565b50565b61094a610e8c565b60006002805460ff16908111156109635761096361117f565b146109a25760405162461bcd60e51b815260206004820152600f60248201526e2930b3333632903737ba1037b832b760891b60448201526064016104ec565b600454600211156109f55760405162461bcd60e51b815260206004820152601c60248201527f4e656564206174206c656173742032207061727469636970616e74730000000060448201526064016104ec565b6002805460ff19166001179055600354600090815260076020908152604080832047905560045481514493810193909352429183019190915243606080840191909152608083019190915233901b6bffffffffffffffffffffffff191660a082015260b40160408051601f19818403018152908290528051602091820120600354818452909350917ff9903b8012e5b590d2aa911a9496c53d1e470114c1a647a9a0ea4744bcb354db910160405180910390a261093f81610f37565b6040805160a08101825260008082526060602083018190529282018190529181018290526080810191909152600860008381526020019081526020016000206040518060a001604052908160008201548152602001600182018054610b15906113b9565b80601f0160208091040260200160405190810160405280929190818152602001828054610b41906113b9565b8015610b8e5780601f10610b6357610100808354040283529160200191610b8e565b820191906000526020600020905b815481529060010190602001808311610b7157829003601f168201915b505050918352505060028201546001600160a01b0381166020830152600160a01b900460ff161515604082015260039091015460609091015292915050565b610bd5610e8c565b6002805460ff1681811115610bec57610bec61117f565b14610c395760405162461bcd60e51b815260206004820152601b60248201527f43757272656e7420726166666c65206e6f742066696e6973686564000000000060448201526064016104ec565b60005b600454811015610c965760006005600060048481548110610c5f57610c5f61159b565b60009182526020808320909101546001600160a01b0316835282019290925260400190205580610c8e8161156f565b915050610c3c565b50610ca360046000611104565b60038054906000610cb38361156f565b90915550506002805460ff191690556003546040517fe23fdee573320f133dc10284dcb988d5c782f07ec7b6b01d7ffbc6d537b2a42190600090a2565b60086020526000908152604090208054600182018054919291610d12906113b9565b80601f0160208091040260200160405190810160405280929190818152602001828054610d3e906113b9565b8015610d8b5780601f10610d6057610100808354040283529160200191610d8b565b820191906000526020600020905b815481529060010190602001808311610d6e57829003601f168201915b50505050600283015460039093015491926001600160a01b03811692600160a01b90910460ff16915085565b610dbf610e8c565b600081815260086020526040902060020154600160a01b900460ff16610e1e5760405162461bcd60e51b81526020600482015260146024820152731059d95b9d081b9bdd081c9959da5cdd195c995960621b60448201526064016104ec565b600981905560405181907f70e5706e1150770b99abd8a2491901177ef6c57682e51b6eae4aeeecb124976990600090a250565b610e59610e8c565b6001600160a01b038116610e8357604051631e4fbdf760e01b8152600060048201526024016104ec565b61093f81610eb9565b6000546001600160a01b031633146105ce5760405163118cdaa760e01b81523360048201526024016104ec565b600080546001600160a01b038381166001600160a01b0319831681178455604051919092169283917f8be0079c531659141344cd1fd0a4f28419497f9722a3daafe3b4186f6b6457e09190a35050565b610f116110c2565b60027f9b779b17422d0df92223018b32b4d1fa46e071723d6817e2486d003becc55f0055565b600454600090610f4790836115c7565b9050600060048281548110610f5e57610f5e61159b565b600091825260208083209091015460035480845260068352604080852080546001600160a01b0319166001600160a01b03909416938417905560079093529183205490935090916064610fb2836005611558565b610fbc91906115db565b90506000610fca82846115ef565b6040519091506001600160a01b0386169082156108fc029083906000818181858888f19350505050158015611003573d6000803e3d6000fd5b50600080546040516001600160a01b039091169184156108fc02918591818181858888f1935050505015801561103d573d6000803e3d6000fd5b506002805460ff19168117905560408051828152602081018690526001600160a01b038716917f866efae43947560fe9d0de9013bc323d5718730d5c1543261b48a7bcb0717b93910160405180910390a260405184907f2a7d48246875b5f17dc9944def25fc8fe90e524ca2165e290ffdc0e44a0bf8b690600090a250505050505050565b7f9b779b17422d0df92223018b32b4d1fa46e071723d6817e2486d003becc55f00546002036105ce57604051633ee5aeb560e01b815260040160405180910390fd5b508054600082559060005260206000209081019061093f91905b80821115611132576000815560010161111e565b5090565b60006020828403121561114857600080fd5b81356001600160a01b038116811461115f57600080fd5b9392505050565b60006020828403121561117857600080fd5b5035919050565b634e487b7160e01b600052602160045260246000fd5b600381106111b357634e487b7160e01b600052602160045260246000fd5b9052565b602081016111c58284611195565b92915050565b6020808252825182820181905260009190848201906040850190845b8181101561120c5783516001600160a01b0316835292840192918401916001016111e7565b50909695505050505050565b85815260a0810161122c6020830187611195565b8460408301528360608301528260808301529695505050505050565b60008060006040848603121561125d57600080fd5b83359250602084013567ffffffffffffffff8082111561127c57600080fd5b818601915086601f83011261129057600080fd5b81358181111561129f57600080fd5b8760208285010111156112b157600080fd5b6020830194508093505050509250925092565b6000815180845260005b818110156112ea576020818501810151868301820152016112ce565b506000602082860101526020601f19601f83011685010191505092915050565b60208152815160208201526000602083015160a0604084015261133060c08401826112c4565b905060018060a01b036040850151166060840152606084015115156080840152608084015160a08401528091505092915050565b85815260a06020820152600061137d60a08301876112c4565b6001600160a01b0395909516604083015250911515606083015260809091015292915050565b634e487b7160e01b600052604160045260246000fd5b600181811c908216806113cd57607f821691505b6020821081036113ed57634e487b7160e01b600052602260045260246000fd5b50919050565b601f82111561143d57600081815260208120601f850160051c8101602086101561141a5750805b601f850160051c820191505b8181101561143957828155600101611426565b5050505b505050565b815167ffffffffffffffff81111561145c5761145c6113a3565b6114708161146a84546113b9565b846113f3565b602080601f8311600181146114a5576000841561148d5750858301515b600019600386901b1c1916600185901b178555611439565b600085815260208120601f198616915b828110156114d4578886015182559484019460019091019084016114b5565b50858210156114f25787850151600019600388901b60f8161c191681555b5050505050600190811b01905550565b6001600160a01b03841681526040602082018190528101829052818360608301376000818301606090810191909152601f909201601f1916010192915050565b634e487b7160e01b600052601160045260246000fd5b80820281158282048414176111c5576111c5611542565b60006001820161158157611581611542565b5060010190565b808201808211156111c5576111c5611542565b634e487b7160e01b600052603260045260246000fd5b634e487b7160e01b600052601260045260246000fd5b6000826115d6576115d66115b1565b500690565b6000826115ea576115ea6115b1565b500490565b818103818111156111c5576111c561154256fea26469706673582212206f66a834650e849874c98d0a6013503dfc4665b9923b17de54ad1e7c1de590b264736f6c63430008140033",
  "linkReferences": {},
  "deployedLinkReferences": {}
}